:100000000C9458000C9480000C9480000C94800098
:100010000C9480000C9480000C9480000C94800060
:100020000C9480000C9480000C9480000C94800050
:100030000C9480000C9480000C9480000C94800040
:100040000C94C9030C9480000C9454020C94860206
:100050000C9480000C9480000C9480000C94800020
:100060000C9480000C948000000000080002010045
:100070000003040700000000000000000102040863
:100080001020408001020408102001020408102002
:10009000040404040404040402020202020203032E
:1000A0000303030300000000250028002B00B60214
:1000B00011241FBECFEFD8E0DEBFCDBF11E0A0E01E
:1000C000B1E0E2E2F0E102C005900D92A633B10783
:1000D000D9F721E0A6E3B1E001C01D92AC3DB20723
:1000E000E1F710E0C0EBD0E004C02297FE010E94CF
:1000F0003A05CE3AD107C9F70E94BA030C940F080B
:100100000C94000026E040E855E260E070E086E3F1
:1001100091E00C94F2010E94EE0068EE73E080E042
:1001200090E00C94360480E00E94990420E034E0D2
:10013000A901481B590BCA010895EF92FF920F9332
:100140001F93CF93DF93CDB7DEB7CF5FD1090FB643
:10015000F894DEBF0FBECDBF8C011F938F9381E05B
:1001600091E09F938F93CE0101967C01FF928F9334
:100170000E943E05B70186E391E00E9437030F908D
:100180000F900F900F900F900F900115110519F41B
:1001900060E088E00BC00130110519F460E088E0F0
:1001A00009C061E088E00230110521F40E94DF04FB
:1001B00060E003C00E94DF0461E08AE00E94DF0487
:1001C000C150DF4F0FB6F894DEBF0FBECDBFDF9139
:1001D000CF911F910F91FF90EF900895CF93DF93F0
:1001E0000E949300EC014AE050E0BC0186E391E0FC
:1001F0000E94A303CE0189559240873C910518F4D3
:1002000080E090E008C0C835D24018F481E090E06A
:1002100002C082E090E0DF91CF910C949D00FC0140
:10022000818D228D90E0805C9F4F821B91098F739E
:1002300099270895FC01918D828D981731F0828D58
:10024000E80FF11D858D90E008958FEF9FEF0895E1
:10025000FC01918D828D981761F0828DDF01A80FCE
:10026000B11D5D968C91928D9F5F9F73928F90E0F0
:1002700008958FEF9FEF08958CEA92E0892B49F063
:1002800080E090E0892B29F00E94AC0281110C944F
:1002900000000895FC01848DDF01A80FB11DA35A51
:1002A000BF4F2C91848D90E001968F739927848F96
:1002B000A689B7892C93A089B1898C9180648C938D
:1002C000938D848D981306C00288F389E02D808178
:1002D0008F7D80830895CF93DF93EC01888D8823F1
:1002E000C9F0EA89FB89808185FD05C0A889B989A3
:1002F0008C9186FD0FC00FB607FCF5CF808185FF7E
:10030000F2CFA889B9898C9185FFEDCFCE010E94EB
:100310004A01E7CFDF91CF910895CF92DF92FF920C
:100320000F931F93CF93DF931F92CDB7DEB76C016E
:1003300081E0D60158968C9358975B969C915B9779
:100340005C968C915C97981307C05096ED91FC9148
:100350005197808185FD2EC0F601038D10E00F5F5F
:100360001F4F0F731127F02EF601848DF81211C064
:100370000FB607FCF9CFD6015096ED91FC9151973D
:10038000808185FFF1CFC60169830E944A0169819E
:10039000EBCF838DE80FF11DE35AFF4F6083D60149
:1003A0005B960C935B975296ED91FC9153978081ED
:1003B00080620CC0D6015696ED91FC9157976083F0
:1003C0005096ED91FC91519780818064808381E00B
:1003D00090E00F90DF91CF911F910F91FF90DF90F0
:1003E000CF900895BF92CF92DF92EF92FF92CF937A
:1003F000DF93EC016A017B01B22EE889F98982E082
:100400008083411581EE580761057105A1F060E018
:1004100079E08DE390E0A70196010E941605215036
:100420003109410951095695479537952795211569
:1004300080E1380798F0E889F989108260E874E86B
:100440008EE190E0A70196010E9416052150310926
:10045000410951095695479537952795EC85FD85B6
:100460003083EE85FF852083188EEC89FD89B0826C
:10047000EA89FB89808180618083EA89FB898081A8
:1004800088608083EA89FB89808180688083EA892B
:10049000FB8980818F7D8083DF91CF91FF90EF90EA
:1004A000DF90CF90BF9008951F920F920FB60F92DA
:1004B00011242F938F939F93EF93FF93E091460125
:1004C000F09147018081E0914C01F0914D0182FD56
:1004D00012C0908180914F018F5F8F7320915001E6
:1004E000821751F0E0914F01F0E0EA5CFE4F958FEA
:1004F00080934F0101C08081FF91EF919F918F9177
:100500002F910F900FBE0F901F9018951F920F9272
:100510000FB60F9211242F933F934F935F936F93D6
:100520007F938F939F93AF93BF93EF93FF9386E354
:1005300091E00E944A01FF91EF91BF91AF919F918D
:100540008F917F916F915F914F913F912F910F907C
:100550000FBE0F901F90189586E391E00E940F0147
:1005600021E0892B09F420E0822F089510923901AF
:100570001092380188EE93E0A0E0B0E080933A0159
:1005800090933B01A0933C01B0933D0188E191E041
:10059000909337018093360185EC90E0909343016E
:1005A0008093420184EC90E0909345018093440154
:1005B00080EC90E0909347018093460181EC90E0BD
:1005C000909349018093480182EC90E090934B0115
:1005D00080934A0186EC90E090934D0180934C010A
:1005E00010924F011092500110925101109252013D
:1005F0000895CF92DF92EF92FF920F931F93CF93C4
:10060000DF936C017A01EB01E60EF71E00E010E0CB
:10061000CE15DF0561F06991D601ED91FC91019055
:10062000F081E02DC6010995080F191FF1CFC8010F
:10063000DF91CF911F910F91FF90EF90DF90CF90BE
:1006400008956115710581F0DB010D900020E9F737
:10065000AD0141505109461B570BDC01ED91FC9156
:100660000280F381E02D099480E090E008950C94DD
:10067000210364E271E00C9421038F929F92AF9268
:10068000BF92CF92DF92EF92FF920F931F93CF937F
:10069000DF93CDB7DEB7A1970FB6F894DEBF0FBEDC
:1006A000CDBF7C01C42EE52FCB01D22E19A221E0B3
:1006B0002D1510F02AE0D22E8E010F5D1F4F8D2CCC
:1006C000912CA12CB12C6C2D7E2FA50194010E94A0
:1006D00016058C2DD29E80191124015011098A30E3
:1006E00014F4805D01C0895CF80180832115310517
:1006F0004105510521F0C22EE32FCA01E4CFB80114
:10070000C7010E942103A1960FB6F894DEBF0FBE69
:10071000CDBFDF91CF911F910F91FF90EF90DF90B0
:10072000CF90BF90AF909F908F9008952115310585
:1007300041F4DC01ED91FC910190F081E02D642FFA
:1007400009940C943D030F931F93CF93DF93EC0117
:100750009A01AB0160E070E00E9496038C01CE012B
:100760000E943903800F911FDF91CF911F910F914C
:10077000089508950E945E040E94B9030E948200B9
:10078000CCE3D1E00E948B002097E1F30E943C0172
:10079000F9CF1F920F920FB60F9211242F933F9310
:1007A0008F939F93AF93BF938091D4019091D50184
:1007B000A091D601B091D7013091D30123E0230F4E
:1007C0002D3720F40196A11DB11D05C026E8230F89
:1007D0000296A11DB11D2093D3018093D401909363
:1007E000D501A093D601B093D7018091D801909103
:1007F000D901A091DA01B091DB010196A11DB11DD3
:100800008093D8019093D901A093DA01B093DB01D2
:10081000BF91AF919F918F913F912F910F900FBEFC
:100820000F901F9018953FB7F8948091D801909140
:10083000D901A091DA01B091DB0126B5A89B05C0D2
:100840002F3F19F00196A11DB11D3FBF6627782FDC
:10085000892F9A2F620F711D811D911D42E0660F35
:10086000771F881F991F4A95D1F70895CF92DF927D
:10087000EF92FF92CF93DF936B017C010E941304F0
:10088000EB01C114D104E104F10489F00E941505C3
:100890000E9413046C1B7D0B683E734090F381E053
:1008A000C81AD108E108F108C851DC4FEACFDF913E
:1008B000CF91FF90EF90DF90CF900895789484B51A
:1008C000826084BD84B5816084BD85B5826085BD4C
:1008D00085B5816085BDEEE6F0E080818160808332
:1008E000E1E8F0E010828081826080838081816015
:1008F0008083E0E8F0E0808181608083E1EBF0E0DC
:10090000808184608083E0EBF0E08081816080837F
:10091000EAE7F0E080818460808380818260808368
:100920008081816080838081806880831092C10093
:1009300008958E3008F08E5087702091000190E469
:10094000299F90011124822B80937C0080917A0052
:10095000806480937A0080917A0086FDFCCF80913C
:1009600078002091790090E0922B0895833081F0F7
:1009700028F4813099F08230A1F008958730A9F0F1
:100980008830B9F08430D1F4809180008F7D03C02D
:10099000809180008F7780938000089584B58F7751
:1009A00002C084B58F7D84BD08958091B0008F779B
:1009B00003C08091B0008F7D8093B00008950F93A5
:1009C0001F93CF93DF931F92CDB7DEB7282F30E070
:1009D000F901E859FF4F8491F901E458FF4F149150
:1009E000F901E057FF4F04910023C9F0882321F05B
:1009F00069830E94B6046981E02FF0E0EE0FFF1FCB
:100A0000EC55FF4FA591B4919FB7F8948C9161116B
:100A100003C01095812301C0812B8C939FBF0F9041
:100A2000DF91CF911F910F9108950895A1E21A2EA1
:100A3000AA1BBB1BFD010DC0AA1FBB1FEE1FFF1F82
:100A4000A217B307E407F50720F0A21BB30BE40BD2
:100A5000F50B661F771F881F991F1A9469F7609519
:100A60007095809590959B01AC01BD01CF010895D3
:100A7000EE0FFF1F0590F491E02D0994AEE0B0E079
:100A8000E4E4F5E00C94E6070D891E8986E08C838A
:100A90001A8309838FEF9FE79E838D83AE01475EA4
:100AA0005F4F6F89788DCE0101960E946005EF81BE
:100AB000F885E00FF11F10822E96E4E00C940208F6
:100AC000ACE0B0E0E6E6F5E00C94D8077C016B0101
:100AD0008A01FC0117821682838181FFBDC1CE018C
:100AE00001964C01F7019381F60193FD859193FFE7
:100AF00081916F01882309F4ABC1853239F493FDEC
:100B0000859193FF81916F01853229F4B70190E0BF
:100B10000E944807E7CF512C312C20E02032A0F46E
:100B20008B3269F030F4803259F0833269F42061FD
:100B30002CC08D3239F0803339F4216026C0226018
:100B4000246023C0286021C027FD27C030ED380F66
:100B50003A3078F426FF06C0FAE05F9E300D11248B
:100B6000532E13C08AE0389E300D1124332E20629C
:100B70000CC08E3221F426FD6BC1206406C08C3679
:100B800011F4206802C0883641F4F60193FD859186
:100B900093FF81916F018111C1CF982F9F7D955453
:100BA000933028F40C5F1F4FFFE3F9830DC08336A9
:100BB00031F0833771F0833509F05BC022C0F80152
:100BC000808189830E5F1F4F44244394512C54012C
:100BD00015C03801F2E06F0E711CF801A080B180E1
:100BE00026FF03C0652D70E002C06FEF7FEFC501E7
:100BF0002C870E943D072C0183012C852F77222E04
:100C000017C03801F2E06F0E711CF801A080B180AE
:100C100026FF03C0652D70E002C06FEF7FEFC501B6
:100C20002C870E9432072C012C852068222E8301FC
:100C300023FC1BC0832D90E048165906B0F4B70181
:100C400080E290E00E9448073A94F4CFF50127FC37
:100C5000859127FE81915F01B70190E00E944807CE
:100C600031103A94F1E04F1A51084114510471F7D0
:100C7000E5C0843611F0893639F5F80127FF07C041
:100C800060817181828193810C5F1F4F08C06081F8
:100C90007181882777FD8095982F0E5F1F4F2F76E3
:100CA000B22E97FF09C090958095709561957F4F02
:100CB0008F4F9F4F2068B22E2AE030E0A4010E949F
:100CC0007A07A82EA81844C0853729F42F7EB22EA3
:100CD0002AE030E025C0F22FF97FBF2E8F36C1F019
:100CE00018F4883579F0B4C0803719F0883721F0CE
:100CF000AFC02F2F2061B22EB4FE0DC08B2D8460AB
:100D0000B82E09C024FF0AC09F2F9660B92E06C0D6
:100D100028E030E005C020E130E002C020E132E010
:100D2000F801B7FE07C060817181828193810C5FF9
:100D30001F4F06C06081718180E090E00E5F1F4F01
:100D4000A4010E947A07A82EA818FB2DFF77BF2EBA
:100D5000B6FE0BC02B2D2E7FA51450F4B4FE0AC096
:100D6000B2FC08C02B2D2E7E05C07A2C2B2D03C083
:100D70007A2C01C0752C24FF0DC0FE01EA0DF11D77
:100D80008081803311F4297E09C022FF06C073944C
:100D9000739404C0822F867809F0739423FD13C0E6
:100DA00020FF06C05A2C731418F4530C5718732CD8
:100DB000731468F4B70180E290E02C870E94480722
:100DC00073942C85F5CF731410F4371801C0312CAF
:100DD00024FF12C0B70180E390E02C870E944807EF
:100DE0002C8522FF17C021FF03C088E590E002C0D8
:100DF00088E790E0B7010CC0822F867859F021FD7A
:100E000002C080E201C08BE227FD8DE2B70190E0D5
:100E10000E944807A51438F4B70180E390E00E94CF
:100E200048075A94F7CFAA94F401EA0DF11D808186
:100E3000B70190E00E944807A110F5CF332009F4D4
:100E400051CEB70180E290E00E9448073A94F6CF75
:100E5000F7018681978102C08FEF9FEF2C96E2E128
:100E60000C94F407FC010590615070400110D8F714
:100E7000809590958E0F9F1F0895FC0161507040E2
:100E800001900110D8F7809590958E0F9F1F0895BF
:100E90000F931F93CF93DF93182F092FEB018B81B3
:100EA00081FD03C08FEF9FEF20C082FF10C04E81F5
:100EB0005F812C813D81421753077CF4E881F981E1
:100EC0009F012F5F3F4F39832883108306C0E88539
:100ED000F985812F0995892B29F72E813F812F5F75
:100EE0003F4F3F832E83812F902FDF91CF911F9112
:100EF0000F910895FA01AA27283051F1203181F18C
:100F0000E8946F936E7F6E5F7F4F8F4F9F4FAF4F11
:100F1000B1E03ED0B4E03CD0670F781F891F9A1F24
:100F2000A11D680F791F8A1F911DA11D6A0F711DD8
:100F3000811D911DA11D20D009F468943F912AE0E4
:100F4000269F11243019305D3193DEF6CF010895CC
:100F5000462F4770405D4193B3E00FD0C9F7F6CFFD
:100F6000462F4F70405D4A3318F0495D31FD4052C5
:100F7000419302D0A9F7EACFB4E0A695979587955B
:100F800077956795BA95C9F700976105710508953A
:100F90009B01AC010A2E06945795479537952795E6
:100FA000BA95C9F7620F731F841F951FA01D08957E
:100FB0002F923F924F925F926F927F928F929F9269
:100FC000AF92BF92CF92DF92EF92FF920F931F9357
:100FD000CF93DF93CDB7DEB7CA1BDB0B0FB6F89408
:100FE000DEBF0FBECDBF09942A88398848885F8448
:100FF0006E847D848C849B84AA84B984C884DF80B9
:10100000EE80FD800C811B81AA81B981CE0FD11D9C
:101010000FB6F894DEBF0FBECDBFED010895F89472
:02102000FFCF00
:10102200016D6F6973747572652073746174653ACA
:1010320025640A00000000008D01F9020F01280159
:101042001A016B010D0A006E616E00696E66006F17
:061052007666002E00008E
:00000001FF
